{
  "_format": "hh-sol-artifact-1",
  "contractName": "TicketNFT",
  "sourceName": "contracts/TicketNFT.sol",
  "abi": [
    {
      "inputs": [],
      "stateMutability": "nonpayable",
      "type": "constructor"
    },
    {
      "inputs": [
        {
          "internalType": "uint256",
          "name": "numerator",
          "type": "uint256"
        },
        {
          "internalType": "uint256",
          "name": "denominator",
          "type": "uint256"
        }
      ],
      "name": "ERC2981InvalidDefaultRoyalty",
      "type": "error"
    },
    {
      "inputs": [
        {
          "internalType": "address",
          "name": "receiver",
          "type": "address"
        }
      ],
      "name": "ERC2981InvalidDefaultRoyaltyReceiver",
      "type": "error"
    },
    {
      "inputs": [
        {
          "internalType": "uint256",
          "name": "tokenId",
          "type": "uint256"
        },
        {
          "internalType": "uint256",
          "name": "numerator",
          "type": "uint256"
        },
        {
          "internalType": "uint256",
          "name": "denominator",
          "type": "uint256"
        }
      ],
      "name": "ERC2981InvalidTokenRoyalty",
      "type": "error"
    },
    {
      "inputs": [
        {
          "internalType": "uint256",
          "name": "tokenId",
          "type": "uint256"
        },
        {
          "internalType": "address",
          "name": "receiver",
          "type": "address"
        }
      ],
      "name": "ERC2981InvalidTokenRoyaltyReceiver",
      "type": "error"
    },
    {
      "inputs": [
        {
          "internalType": "address",
          "name": "sender",
          "type": "address"
        },
        {
          "internalType": "uint256",
          "name": "tokenId",
          "type": "uint256"
        },
        {
          "internalType": "address",
          "name": "owner",
          "type": "address"
        }
      ],
      "name": "ERC721IncorrectOwner",
      "type": "error"
    },
    {
      "inputs": [
        {
          "internalType": "address",
          "name": "operator",
          "type": "address"
        },
        {
          "internalType": "uint256",
          "name": "tokenId",
          "type": "uint256"
        }
      ],
      "name": "ERC721InsufficientApproval",
      "type": "error"
    },
    {
      "inputs": [
        {
          "internalType": "address",
          "name": "approver",
          "type": "address"
        }
      ],
      "name": "ERC721InvalidApprover",
      "type": "error"
    },
    {
      "inputs": [
        {
          "internalType": "address",
          "name": "operator",
          "type": "address"
        }
      ],
      "name": "ERC721InvalidOperator",
      "type": "error"
    },
    {
      "inputs": [
        {
          "internalType": "address",
          "name": "owner",
          "type": "address"
        }
      ],
      "name": "ERC721InvalidOwner",
      "type": "error"
    },
    {
      "inputs": [
        {
          "internalType": "address",
          "name": "receiver",
          "type": "address"
        }
      ],
      "name": "ERC721InvalidReceiver",
      "type": "error"
    },
    {
      "inputs": [
        {
          "internalType": "address",
          "name": "sender",
          "type": "address"
        }
      ],
      "name": "ERC721InvalidSender",
      "type": "error"
    },
    {
      "inputs": [
        {
          "internalType": "uint256",
          "name": "tokenId",
          "type": "uint256"
        }
      ],
      "name": "ERC721NonexistentToken",
      "type": "error"
    },
    {
      "inputs": [
        {
          "internalType": "address",
          "name": "owner",
          "type": "address"
        }
      ],
      "name": "OwnableInvalidOwner",
      "type": "error"
    },
    {
      "inputs": [
        {
          "internalType": "address",
          "name": "account",
          "type": "address"
        }
      ],
      "name": "OwnableUnauthorizedAccount",
      "type": "error"
    },
    {
      "anonymous": false,
      "inputs": [
        {
          "indexed": true,
          "internalType": "address",
          "name": "owner",
          "type": "address"
        },
        {
          "indexed": true,
          "internalType": "address",
          "name": "approved",
          "type": "address"
        },
        {
          "indexed": true,
          "internalType": "uint256",
          "name": "tokenId",
          "type": "uint256"
        }
      ],
      "name": "Approval",
      "type": "event"
    },
    {
      "anonymous": false,
      "inputs": [
        {
          "indexed": true,
          "internalType": "address",
          "name": "owner",
          "type": "address"
        },
        {
          "indexed": true,
          "internalType": "address",
          "name": "operator",
          "type": "address"
        },
        {
          "indexed": false,
          "internalType": "bool",
          "name": "approved",
          "type": "bool"
        }
      ],
      "name": "ApprovalForAll",
      "type": "event"
    },
    {
      "anonymous": false,
      "inputs": [
        {
          "indexed": false,
          "internalType": "uint256",
          "name": "_fromTokenId",
          "type": "uint256"
        },
        {
          "indexed": false,
          "internalType": "uint256",
          "name": "_toTokenId",
          "type": "uint256"
        }
      ],
      "name": "BatchMetadataUpdate",
      "type": "event"
    },
    {
      "anonymous": false,
      "inputs": [
        {
          "indexed": true,
          "internalType": "uint256",
          "name": "eventId",
          "type": "uint256"
        },
        {
          "indexed": true,
          "internalType": "address",
          "name": "organizer",
          "type": "address"
        },
        {
          "indexed": false,
          "internalType": "string",
          "name": "name",
          "type": "string"
        },
        {
          "indexed": false,
          "internalType": "uint256",
          "name": "price",
          "type": "uint256"
        },
        {
          "indexed": false,
          "internalType": "uint256",
          "name": "maxSupply",
          "type": "uint256"
        }
      ],
      "name": "EventCreated",
      "type": "event"
    },
    {
      "anonymous": false,
      "inputs": [
        {
          "indexed": false,
          "internalType": "uint256",
          "name": "_tokenId",
          "type": "uint256"
        }
      ],
      "name": "MetadataUpdate",
      "type": "event"
    },
    {
      "anonymous": false,
      "inputs": [
        {
          "indexed": true,
          "internalType": "address",
          "name": "previousOwner",
          "type": "address"
        },
        {
          "indexed": true,
          "internalType": "address",
          "name": "newOwner",
          "type": "address"
        }
      ],
      "name": "OwnershipTransferred",
      "type": "event"
    },
    {
      "anonymous": false,
      "inputs": [
        {
          "indexed": true,
          "internalType": "uint256",
          "name": "tokenId",
          "type": "uint256"
        },
        {
          "indexed": true,
          "internalType": "address",
          "name": "seller",
          "type": "address"
        }
      ],
      "name": "ResaleCancelled",
      "type": "event"
    },
    {
      "anonymous": false,
      "inputs": [
        {
          "indexed": true,
          "internalType": "uint256",
          "name": "tokenId",
          "type": "uint256"
        },
        {
          "indexed": false,
          "internalType": "uint256",
          "name": "price",
          "type": "uint256"
        },
        {
          "indexed": true,
          "internalType": "address",
          "name": "seller",
          "type": "address"
        }
      ],
      "name": "TicketListed",
      "type": "event"
    },
    {
      "anonymous": false,
      "inputs": [
        {
          "indexed": true,
          "internalType": "uint256",
          "name": "tokenId",
          "type": "uint256"
        },
        {
          "indexed": true,
          "internalType": "uint256",
          "name": "eventId",
          "type": "uint256"
        },
        {
          "indexed": true,
          "internalType": "address",
          "name": "buyer",
          "type": "address"
        },
        {
          "indexed": false,
          "internalType": "string",
          "name": "tokenURI",
          "type": "string"
        }
      ],
      "name": "TicketMinted",
      "type": "event"
    },
    {
      "anonymous": false,
      "inputs": [
        {
          "indexed": true,
          "internalType": "uint256",
          "name": "tokenId",
          "type": "uint256"
        },
        {
          "indexed": true,
          "internalType": "address",
          "name": "seller",
          "type": "address"
        },
        {
          "indexed": true,
          "internalType": "address",
          "name": "buyer",
          "type": "address"
        },
        {
          "indexed": false,
          "internalType": "uint256",
          "name": "price",
          "type": "uint256"
        }
      ],
      "name": "TicketResold",
      "type": "event"
    },
    {
      "anonymous": false,
      "inputs": [
        {
          "indexed": true,
          "internalType": "uint256",
          "name": "tokenId",
          "type": "uint256"
        }
      ],
      "name": "TicketUsed",
      "type": "event"
    },
    {
      "anonymous": false,
      "inputs": [
        {
          "indexed": true,
          "internalType": "address",
          "name": "from",
          "type": "address"
        },
        {
          "indexed": true,
          "internalType": "address",
          "name": "to",
          "type": "address"
        },
        {
          "indexed": true,
          "internalType": "uint256",
          "name": "tokenId",
          "type": "uint256"
        }
      ],
      "name": "Transfer",
      "type": "event"
    },
    {
      "inputs": [
        {
          "internalType": "address",
          "name": "to",
          "type": "address"
        },
        {
          "internalType": "uint256",
          "name": "tokenId",
          "type": "uint256"
        }
      ],
      "name": "approve",
      "outputs": [],
      "stateMutability": "nonpayable",
      "type": "function"
    },
    {
      "inputs": [
        {
          "internalType": "address",
          "name": "owner",
          "type": "address"
        }
      ],
      "name": "balanceOf",
      "outputs": [
        {
          "internalType": "uint256",
          "name": "",
          "type": "uint256"
        }
      ],
      "stateMutability": "view",
      "type": "function"
    },
    {
      "inputs": [
        {
          "internalType": "uint256",
          "name": "_tokenId",
          "type": "uint256"
        }
      ],
      "name": "buyResaleTicket",
      "outputs": [],
      "stateMutability": "payable",
      "type": "function"
    },
    {
      "inputs": [
        {
          "internalType": "uint256",
          "name": "_eventId",
          "type": "uint256"
        },
        {
          "internalType": "string",
          "name": "_tokenURI",
          "type": "string"
        }
      ],
      "name": "buyTicket",
      "outputs": [
        {
          "internalType": "uint256",
          "name": "",
          "type": "uint256"
        }
      ],
      "stateMutability": "payable",
      "type": "function"
    },
    {
      "inputs": [
        {
          "internalType": "uint256",
          "name": "_tokenId",
          "type": "uint256"
        }
      ],
      "name": "cancelResale",
      "outputs": [],
      "stateMutability": "nonpayable",
      "type": "function"
    },
    {
      "inputs": [
        {
          "internalType": "string",
          "name": "_name",
          "type": "string"
        },
        {
          "internalType": "uint256",
          "name": "_price",
          "type": "uint256"
        },
        {
          "internalType": "uint256",
          "name": "_maxSupply",
          "type": "uint256"
        }
      ],
      "name": "createEvent",
      "outputs": [
        {
          "internalType": "uint256",
          "name": "",
          "type": "uint256"
        }
      ],
      "stateMutability": "nonpayable",
      "type": "function"
    },
    {
      "inputs": [
        {
          "internalType": "uint256",
          "name": "",
          "type": "uint256"
        }
      ],
      "name": "events",
      "outputs": [
        {
          "internalType": "address",
          "name": "organizer",
          "type": "address"
        },
        {
          "internalType": "string",
          "name": "name",
          "type": "string"
        },
        {
          "internalType": "uint256",
          "name": "price",
          "type": "uint256"
        },
        {
          "internalType": "uint256",
          "name": "maxSupply",
          "type": "uint256"
        },
        {
          "internalType": "uint256",
          "name": "ticketsMinted",
          "type": "uint256"
        },
        {
          "internalType": "bool",
          "name": "exists",
          "type": "bool"
        }
      ],
      "stateMutability": "view",
      "type": "function"
    },
    {
      "inputs": [
        {
          "internalType": "uint256",
          "name": "tokenId",
          "type": "uint256"
        }
      ],
      "name": "getApproved",
      "outputs": [
        {
          "internalType": "address",
          "name": "",
          "type": "address"
        }
      ],
      "stateMutability": "view",
      "type": "function"
    },
    {
      "inputs": [
        {
          "internalType": "address",
          "name": "owner",
          "type": "address"
        },
        {
          "internalType": "address",
          "name": "operator",
          "type": "address"
        }
      ],
      "name": "isApprovedForAll",
      "outputs": [
        {
          "internalType": "bool",
          "name": "",
          "type": "bool"
        }
      ],
      "stateMutability": "view",
      "type": "function"
    },
    {
      "inputs": [
        {
          "internalType": "uint256",
          "name": "_tokenId",
          "type": "uint256"
        },
        {
          "internalType": "uint256",
          "name": "_price",
          "type": "uint256"
        }
      ],
      "name": "listForResale",
      "outputs": [],
      "stateMutability": "nonpayable",
      "type": "function"
    },
    {
      "inputs": [
        {
          "internalType": "uint256",
          "name": "_tokenId",
          "type": "uint256"
        }
      ],
      "name": "markAsUsed",
      "outputs": [],
      "stateMutability": "nonpayable",
      "type": "function"
    },
    {
      "inputs": [],
      "name": "name",
      "outputs": [
        {
          "internalType": "string",
          "name": "",
          "type": "string"
        }
      ],
      "stateMutability": "view",
      "type": "function"
    },
    {
      "inputs": [],
      "name": "nextEventId",
      "outputs": [
        {
          "internalType": "uint256",
          "name": "",
          "type": "uint256"
        }
      ],
      "stateMutability": "view",
      "type": "function"
    },
    {
      "inputs": [],
      "name": "owner",
      "outputs": [
        {
          "internalType": "address",
          "name": "",
          "type": "address"
        }
      ],
      "stateMutability": "view",
      "type": "function"
    },
    {
      "inputs": [
        {
          "internalType": "uint256",
          "name": "tokenId",
          "type": "uint256"
        }
      ],
      "name": "ownerOf",
      "outputs": [
        {
          "internalType": "address",
          "name": "",
          "type": "address"
        }
      ],
      "stateMutability": "view",
      "type": "function"
    },
    {
      "inputs": [],
      "name": "renounceOwnership",
      "outputs": [],
      "stateMutability": "nonpayable",
      "type": "function"
    },
    {
      "inputs": [
        {
          "internalType": "uint256",
          "name": "",
          "type": "uint256"
        }
      ],
      "name": "resaleListings",
      "outputs": [
        {
          "internalType": "uint256",
          "name": "price",
          "type": "uint256"
        },
        {
          "internalType": "address",
          "name": "seller",
          "type": "address"
        },
        {
          "internalType": "bool",
          "name": "isListed",
          "type": "bool"
        }
      ],
      "stateMutability": "view",
      "type": "function"
    },
    {
      "inputs": [
        {
          "internalType": "uint256",
          "name": "tokenId",
          "type": "uint256"
        },
        {
          "internalType": "uint256",
          "name": "salePrice",
          "type": "uint256"
        }
      ],
      "name": "royaltyInfo",
      "outputs": [
        {
          "internalType": "address",
          "name": "",
          "type": "address"
        },
        {
          "internalType": "uint256",
          "name": "",
          "type": "uint256"
        }
      ],
      "stateMutability": "view",
      "type": "function"
    },
    {
      "inputs": [
        {
          "internalType": "address",
          "name": "from",
          "type": "address"
        },
        {
          "internalType": "address",
          "name": "to",
          "type": "address"
        },
        {
          "internalType": "uint256",
          "name": "tokenId",
          "type": "uint256"
        }
      ],
      "name": "safeTransferFrom",
      "outputs": [],
      "stateMutability": "nonpayable",
      "type": "function"
    },
    {
      "inputs": [
        {
          "internalType": "address",
          "name": "from",
          "type": "address"
        },
        {
          "internalType": "address",
          "name": "to",
          "type": "address"
        },
        {
          "internalType": "uint256",
          "name": "tokenId",
          "type": "uint256"
        },
        {
          "internalType": "bytes",
          "name": "data",
          "type": "bytes"
        }
      ],
      "name": "safeTransferFrom",
      "outputs": [],
      "stateMutability": "nonpayable",
      "type": "function"
    },
    {
      "inputs": [
        {
          "internalType": "address",
          "name": "operator",
          "type": "address"
        },
        {
          "internalType": "bool",
          "name": "approved",
          "type": "bool"
        }
      ],
      "name": "setApprovalForAll",
      "outputs": [],
      "stateMutability": "nonpayable",
      "type": "function"
    },
    {
      "inputs": [
        {
          "internalType": "bytes4",
          "name": "interfaceId",
          "type": "bytes4"
        }
      ],
      "name": "supportsInterface",
      "outputs": [
        {
          "internalType": "bool",
          "name": "",
          "type": "bool"
        }
      ],
      "stateMutability": "view",
      "type": "function"
    },
    {
      "inputs": [],
      "name": "symbol",
      "outputs": [
        {
          "internalType": "string",
          "name": "",
          "type": "string"
        }
      ],
      "stateMutability": "view",
      "type": "function"
    },
    {
      "inputs": [
        {
          "internalType": "uint256",
          "name": "",
          "type": "uint256"
        }
      ],
      "name": "ticketEvents",
      "outputs": [
        {
          "internalType": "uint256",
          "name": "",
          "type": "uint256"
        }
      ],
      "stateMutability": "view",
      "type": "function"
    },
    {
      "inputs": [
        {
          "internalType": "uint256",
          "name": "",
          "type": "uint256"
        }
      ],
      "name": "ticketUsed",
      "outputs": [
        {
          "internalType": "bool",
          "name": "",
          "type": "bool"
        }
      ],
      "stateMutability": "view",
      "type": "function"
    },
    {
      "inputs": [
        {
          "internalType": "uint256",
          "name": "tokenId",
          "type": "uint256"
        }
      ],
      "name": "tokenURI",
      "outputs": [
        {
          "internalType": "string",
          "name": "",
          "type": "string"
        }
      ],
      "stateMutability": "view",
      "type": "function"
    },
    {
      "inputs": [
        {
          "internalType": "address",
          "name": "from",
          "type": "address"
        },
        {
          "internalType": "address",
          "name": "to",
          "type": "address"
        },
        {
          "internalType": "uint256",
          "name": "tokenId",
          "type": "uint256"
        }
      ],
      "name": "transferFrom",
      "outputs": [],
      "stateMutability": "nonpayable",
      "type": "function"
    },
    {
      "inputs": [
        {
          "internalType": "address",
          "name": "newOwner",
          "type": "address"
        }
      ],
      "name": "transferOwnership",
      "outputs": [],
      "stateMutability": "nonpayable",
      "type": "function"
    }
  ],
  "bytecode": "0x608060405234801562000010575f80fd5b50336040518060400160405280600c81526020017f5469636b6574536869656c6400000000000000000000000000000000000000008152506040518060400160405280600581526020017f54534e4654000000000000000000000000000000000000000000000000000000815250815f90816200008e91906200061b565b508060019081620000a091906200061b565b5050505f73ffffffffffffffffffffffffffffffffffffffff168173ffffffffffffffffffffffffffffffffffffffff160362000116575f6040517f1e4fbdf70000000000000000000000000000000000000000000000000000000081526004016200010d919062000742565b60405180910390fd5b62000127816200014260201b60201c565b506200013c336103e86200020560201b60201c565b620007e8565b5f60075f9054906101000a900473ffffffffffffffffffffffffffffffffffffffff1690508160075f6101000a81548173ffffffffffffffffffffffffffffffffffffffff021916908373ffffffffffffffffffffffffffffffffffffffff1602179055508173ffffffffffffffffffffffffffffffffffffffff168173ffffffffffffffffffffffffffffffffffffffff167f8be0079c531659141344cd1fd0a4f28419497f9722a3daafe3b4186f6b6457e060405160405180910390a35050565b5f62000216620003ae60201b60201c565b6bffffffffffffffffffffffff16905080826bffffffffffffffffffffffff1611156200027e5781816040517f6f483d0900000000000000000000000000000000000000000000000000000000815260040162000275929190620007bd565b60405180910390fd5b5f73ffffffffffffffffffffffffffffffffffffffff168373ffffffffffffffffffffffffffffffffffffffff1603620002f1575f6040517fb6d9900a000000000000000000000000000000000000000000000000000000008152600401620002e8919062000742565b60405180910390fd5b60405180604001604052808473ffffffffffffffffffffffffffffffffffffffff168152602001836bffffffffffffffffffffffff1681525060085f820151815f015f6101000a81548173ffffffffffffffffffffffffffffffffffffffff021916908373ffffffffffffffffffffffffffffffffffffffff1602179055506020820151815f0160146101000a8154816bffffffffffffffffffffffff02191690836bffffffffffffffffffffffff160217905550905050505050565b5f612710905090565b5f81519050919050565b7f4e487b71000000000000000000000000000000000000000000000000000000005f52604160045260245ffd5b7f4e487b71000000000000000000000000000000000000000000000000000000005f52602260045260245ffd5b5f60028204905060018216806200043357607f821691505b602082108103620004495762000448620003ee565b5b50919050565b5f819050815f5260205f209050919050565b5f6020601f8301049050919050565b5f82821b905092915050565b5f60088302620004ad7fffffffffffffffffffffffffffffffffffffffffffffffffffffffffffffffff8262000470565b620004b9868362000470565b95508019841693508086168417925050509392505050565b5f819050919050565b5f819050919050565b5f62000503620004fd620004f784620004d1565b620004da565b620004d1565b9050919050565b5f819050919050565b6200051e83620004e3565b620005366200052d826200050a565b8484546200047c565b825550505050565b5f90565b6200054c6200053e565b6200055981848462000513565b505050565b5b818110156200058057620005745f8262000542565b6001810190506200055f565b5050565b601f821115620005cf5762000599816200044f565b620005a48462000461565b81016020851015620005b4578190505b620005cc620005c38562000461565b8301826200055e565b50505b505050565b5f82821c905092915050565b5f620005f15f1984600802620005d4565b1980831691505092915050565b5f6200060b8383620005e0565b9150826002028217905092915050565b6200062682620003b7565b67ffffffffffffffff811115620006425762000641620003c1565b5b6200064e82546200041b565b6200065b82828562000584565b5f60209050601f83116001811462000691575f84156200067c578287015190505b620006888582620005fe565b865550620006f7565b601f198416620006a1866200044f565b5f5b82811015620006ca57848901518255600182019150602085019450602081019050620006a3565b86831015620006ea5784890151620006e6601f891682620005e0565b8355505b6001600288020188555050505b505050505050565b5f73ffffffffffffffffffffffffffffffffffffffff82169050919050565b5f6200072a82620006ff565b9050919050565b6200073c816200071e565b82525050565b5f602082019050620007575f83018462000731565b92915050565b5f6bffffffffffffffffffffffff82169050919050565b5f620007946200078e62000788846200075d565b620004da565b620004d1565b9050919050565b620007a68162000774565b82525050565b620007b781620004d1565b82525050565b5f604082019050620007d25f8301856200079b565b620007e16020830184620007ac565b9392505050565b61496a80620007f65f395ff3fe6080604052600436106101b6575f3560e01c8063715018a6116100eb578063b41b4bd411610089578063e985e9c511610063578063e985e9c51461063c578063e9e59a6a14610678578063f1975a6f146106b4578063f2fde38b146106dc576101b6565b8063b41b4bd41461059a578063b88d4fde146105d8578063c87b56dd14610600576101b6565b80639afb93cb116100c55780639afb93cb146104dc5780639e9580f61461050c5780639f9d903a14610548578063a22cb46514610572576101b6565b8063715018a6146104725780638da5cb5b1461048857806395d89b41146104b2576101b6565b806323b872dd116101585780635da6a041116101325780635da6a041146103965780636352211e146103be578063642b5f9b146103fa57806370a0823114610436576101b6565b806323b872dd146103095780632a55205a1461033157806342842e0e1461036e576101b6565b8063095ea7b311610194578063095ea7b31461025c5780630b791430146102845780631d9c5d5c146102c55780631f7d863c146102e1576101b6565b806301ffc9a7146101ba57806306fdde03146101f6578063081812fc14610220575b5f80fd5b3480156101c5575f80fd5b506101e060048036038101906101db9190613675565b610704565b6040516101ed91906136ba565b60405180910390f35b348015610201575f80fd5b5061020a610715565b604051610217919061375d565b60405180910390f35b34801561022b575f80fd5b50610246600480360381019061024191906137b0565b6107a4565b604051610253919061381a565b60405180910390f35b348015610267575f80fd5b50610282600480360381019061027d919061385d565b6107bf565b005b34801561028f575f80fd5b506102aa60048036038101906102a591906137b0565b6107d5565b6040516102bc969594939291906138aa565b60405180910390f35b6102df60048036038101906102da91906137b0565b6108be565b005b3480156102ec575f80fd5b5061030760048036038101906103029190613910565b610edc565b005b348015610314575f80fd5b5061032f600480360381019061032a919061394e565b61126f565b005b34801561033c575f80fd5b5061035760048036038101906103529190613910565b61136e565b60405161036592919061399e565b60405180910390f35b348015610379575f80fd5b50610394600480360381019061038f919061394e565b611433565b005b3480156103a1575f80fd5b506103bc60048036038101906103b791906137b0565b611452565b005b3480156103c9575f80fd5b506103e460048036038101906103df91906137b0565b61163b565b6040516103f1919061381a565b60405180910390f35b348015610405575f80fd5b50610420600480360381019061041b91906137b0565b61164c565b60405161042d91906136ba565b60405180910390f35b348015610441575f80fd5b5061045c600480360381019061045791906139c5565b611669565b60405161046991906139f0565b60405180910390f35b34801561047d575f80fd5b5061048661171f565b005b348015610493575f80fd5b5061049c611732565b6040516104a9919061381a565b60405180910390f35b3480156104bd575f80fd5b506104c661175a565b6040516104d3919061375d565b60405180910390f35b6104f660048036038101906104f19190613b35565b6117ea565b60405161050391906139f0565b60405180910390f35b348015610517575f80fd5b50610532600480360381019061052d9190613b8f565b611b38565b60405161053f91906139f0565b60405180910390f35b348015610553575f80fd5b5061055c611ca1565b60405161056991906139f0565b60405180910390f35b34801561057d575f80fd5b5061059860048036038101906105939190613c25565b611ca7565b005b3480156105a5575f80fd5b506105c060048036038101906105bb91906137b0565b611cbd565b6040516105cf93929190613c63565b60405180910390f35b3480156105e3575f80fd5b506105fe60048036038101906105f99190613d36565b611d0f565b005b34801561060b575f80fd5b50610626600480360381019061062191906137b0565b611d34565b604051610633919061375d565b60405180910390f35b348015610647575f80fd5b50610662600480360381019061065d9190613db6565b611d46565b60405161066f91906136ba565b60405180910390f35b348015610683575f80fd5b5061069e600480360381019061069991906137b0565b611dd4565b6040516106ab91906139f0565b60405180910390f35b3480156106bf575f80fd5b506106da60048036038101906106d591906137b0565b611de9565b005b3480156106e7575f80fd5b5061070260048036038101906106fd91906139c5565b611f63565b005b5f61070e82611fe7565b9050919050565b60605f805461072390613e21565b80601f016020809104026020016040519081016040528092919081815260200182805461074f90613e21565b801561079a5780601f106107715761010080835404028352916020019161079a565b820191905f5260205f20905b81548152906001019060200180831161077d57829003601f168201915b5050505050905090565b5f6107ae82612060565b506107b8826120e6565b9050919050565b6107d182826107cc61211f565b612126565b5050565b600b602052805f5260405f205f91509050805f015f9054906101000a900473ffffffffffffffffffffffffffffffffffffffff169080600101805461081990613e21565b80601f016020809104026020016040519081016040528092919081815260200182805461084590613e21565b80156108905780601f1061086757610100808354040283529160200191610890565b820191905f5260205f20905b81548152906001019060200180831161087357829003601f168201915b505050505090806002015490806003015490806004015490806005015f9054906101000a900460ff16905086565b5f600f5f8381526020019081526020015f206040518060600160405290815f8201548152602001600182015f9054906101000a900473ffffffffffffffffffffffffffffffffffffffff1673ffffffffffffffffffffffffffffffffffffffff1673ffffffffffffffffffffffffffffffffffffffff1681526020016001820160149054906101000a900460ff1615151515815250509050806040015161099a576040517f08c379a000000000000000000000000000000000000000000000000000000000815260040161099190613e9b565b60405180910390fd5b805f01513410156109e0576040517f08c379a00000000000000000000000000000000000000000000000000000000081526004016109d790613f03565b60405180910390fd5b5f6109ea8361163b565b90508073ffffffffffffffffffffffffffffffffffffffff16826020015173ffffffffffffffffffffffffffffffffffffffff1614610a5e576040517f08c379a0000000000000000000000000000000000000000000000000000000008152600401610a5590613f6b565b60405180910390fd5b5f600d5f8581526020019081526020015f205490505f600b5f8381526020019081526020015f206040518060c00160405290815f82015f9054906101000a900473ffffffffffffffffffffffffffffffffffffffff1673ffffffffffffffffffffffffffffffffffffffff1673ffffffffffffffffffffffffffffffffffffffff168152602001600182018054610af490613e21565b80601f0160208091040260200160405190810160405280929190818152602001828054610b2090613e21565b8015610b6b5780601f10610b4257610100808354040283529160200191610b6b565b820191905f5260205f20905b815481529060010190602001808311610b4e57829003601f168201915b50505050508152602001600282015481526020016003820154815260200160048201548152602001600582015f9054906101000a900460ff16151515158152505090505f6127106103e8865f0151610bc39190613fb6565b610bcd9190614024565b90505f81865f0151610bdf9190614054565b9050600f5f8881526020019081526020015f205f8082015f9055600182015f6101000a81549073ffffffffffffffffffffffffffffffffffffffff02191690556001820160146101000a81549060ff02191690555050610c40853389612138565b5f811115610cf2575f8573ffffffffffffffffffffffffffffffffffffffff1682604051610c6d906140b4565b5f6040518083038185875af1925050503d805f8114610ca7576040519150601f19603f3d011682016040523d82523d5f602084013e610cac565b606091505b5050905080610cf0576040517f08c379a0000000000000000000000000000000000000000000000000000000008152600401610ce790614112565b60405180910390fd5b505b5f821115610da7575f835f015173ffffffffffffffffffffffffffffffffffffffff1683604051610d22906140b4565b5f6040518083038185875af1925050503d805f8114610d5c576040519150601f19603f3d011682016040523d82523d5f602084013e610d61565b606091505b5050905080610da5576040517f08c379a0000000000000000000000000000000000000000000000000000000008152600401610d9c9061417a565b60405180910390fd5b505b855f0151341115610e6a575f3373ffffffffffffffffffffffffffffffffffffffff16875f015134610dd99190614054565b604051610de5906140b4565b5f6040518083038185875af1925050503d805f8114610e1f576040519150601f19603f3d011682016040523d82523d5f602084013e610e24565b606091505b5050905080610e68576040517f08c379a0000000000000000000000000000000000000000000000000000000008152600401610e5f906141e2565b60405180910390fd5b505b3373ffffffffffffffffffffffffffffffffffffffff168573ffffffffffffffffffffffffffffffffffffffff16887fd59a36d8310ffb140214be490baf3fe8961f859a17199ec1bf9015c8b7340011895f0151604051610ecb91906139f0565b60405180910390a450505050505050565b3373ffffffffffffffffffffffffffffffffffffffff16610efc8361163b565b73ffffffffffffffffffffffffffffffffffffffff1614610f52576040517f08c379a0000000000000000000000000000000000000000000000000000000008152600401610f499061424a565b60405180910390fd5b600e5f8381526020019081526020015f205f9054906101000a900460ff1615610fb0576040517f08c379a0000000000000000000000000000000000000000000000000000000008152600401610fa7906142b2565b60405180910390fd5b5f600d5f8481526020019081526020015f205490505f600b5f8381526020019081526020015f206040518060c00160405290815f82015f9054906101000a900473ffffffffffffffffffffffffffffffffffffffff1673ffffffffffffffffffffffffffffffffffffffff1673ffffffffffffffffffffffffffffffffffffffff16815260200160018201805461104690613e21565b80601f016020809104026020016040519081016040528092919081815260200182805461107290613e21565b80156110bd5780601f10611094576101008083540402835291602001916110bd565b820191905f5260205f20905b8154815290600101906020018083116110a057829003601f168201915b50505050508152602001600282015481526020016003820154815260200160048201548152602001600582015f9054906101000a900460ff16151515158152505090505f6064609683604001516111149190613fb6565b61111e9190614024565b905080841115611163576040517f08c379a000000000000000000000000000000000000000000000000000000000815260040161115a9061431a565b60405180910390fd5b60405180606001604052808581526020013373ffffffffffffffffffffffffffffffffffffffff16815260200160011515815250600f5f8781526020019081526020015f205f820151815f01556020820151816001015f6101000a81548173ffffffffffffffffffffffffffffffffffffffff021916908373ffffffffffffffffffffffffffffffffffffffff16021790555060408201518160010160146101000a81548160ff0219169083151502179055509050503373ffffffffffffffffffffffffffffffffffffffff16857f5ddeb20641397a4006800e63273f4f75df6e6964e4456220df00032d3d160da78660405161126091906139f0565b60405180910390a35050505050565b5f73ffffffffffffffffffffffffffffffffffffffff168273ffffffffffffffffffffffffffffffffffffffff16036112df575f6040517f64a0ae920000000000000000000000000000000000000000000000000000000081526004016112d6919061381a565b60405180910390fd5b5f6112f283836112ed61211f565b6122a0565b90508373ffffffffffffffffffffffffffffffffffffffff168173ffffffffffffffffffffffffffffffffffffffff1614611368578382826040517f64283d7b00000000000000000000000000000000000000000000000000000000815260040161135f93929190614338565b60405180910390fd5b50505050565b5f805f600d5f8681526020019081526020015f205490505f600b5f8381526020019081526020015f205f015f9054906101000a900473ffffffffffffffffffffffffffffffffffffffff1690505f6127106103e8876113cd9190613fb6565b6113d79190614024565b90505f73ffffffffffffffffffffffffffffffffffffffff168273ffffffffffffffffffffffffffffffffffffffff16036114225761141687876123a4565b9450945050505061142c565b8181945094505050505b9250929050565b61144d83838360405180602001604052805f815250611d0f565b505050565b5f600d5f8381526020019081526020015f205490503373ffffffffffffffffffffffffffffffffffffffff16600b5f8381526020019081526020015f205f015f9054906101000a900473ffffffffffffffffffffffffffffffffffffffff1673ffffffffffffffffffffffffffffffffffffffff1614611507576040517f08c379a00000000000000000000000000000000000000000000000000000000081526004016114fe906143b7565b60405180910390fd5b600e5f8381526020019081526020015f205f9054906101000a900460ff1615611565576040517f08c379a000000000000000000000000000000000000000000000000000000000815260040161155c906142b2565b60405180910390fd5b6001600e5f8481526020019081526020015f205f6101000a81548160ff021916908315150217905550600f5f8381526020019081526020015f2060010160149054906101000a900460ff161561160a57600f5f8381526020019081526020015f205f8082015f9055600182015f6101000a81549073ffffffffffffffffffffffffffffffffffffffff02191690556001820160146101000a81549060ff021916905550505b817f1f5d53e38fbc5a40092861e993062e74fb6dc7acef58356c7b55aa1afd8b350160405160405180910390a25050565b5f61164582612060565b9050919050565b600e602052805f5260405f205f915054906101000a900460ff1681565b5f8073ffffffffffffffffffffffffffffffffffffffff168273ffffffffffffffffffffffffffffffffffffffff16036116da575f6040517f89c62b640000000000000000000000000000000000000000000000000000000081526004016116d1919061381a565b60405180910390fd5b60035f8373ffffffffffffffffffffffffffffffffffffffff1673ffffffffffffffffffffffffffffffffffffffff1681526020019081526020015f20549050919050565b6117276124c6565b6117305f61254d565b565b5f60075f9054906101000a900473ffffffffffffffffffffffffffffffffffffffff16905090565b60606001805461176990613e21565b80601f016020809104026020016040519081016040528092919081815260200182805461179590613e21565b80156117e05780601f106117b7576101008083540402835291602001916117e0565b820191905f5260205f20905b8154815290600101906020018083116117c357829003601f168201915b5050505050905090565b5f80600b5f8581526020019081526020015f209050806005015f9054906101000a900460ff1661184f576040517f08c379a00000000000000000000000000000000000000000000000000000000081526004016118469061441f565b60405180910390fd5b8060030154816004015410611899576040517f08c379a000000000000000000000000000000000000000000000000000000000815260040161189090614487565b60405180910390fd5b80600201543410156118e0576040517f08c379a00000000000000000000000000000000000000000000000000000000081526004016118d790613f03565b60405180910390fd5b5f600a5f8154809291906118f3906144a5565b919050559050816004015f81548092919061190d906144a5565b919050555084600d5f8381526020019081526020015f20819055506119323382612610565b61193c818561262d565b5f82600201541115611a18575f825f015f9054906101000a900473ffffffffffffffffffffffffffffffffffffffff1673ffffffffffffffffffffffffffffffffffffffff168360020154604051611993906140b4565b5f6040518083038185875af1925050503d805f81146119cd576040519150601f19603f3d011682016040523d82523d5f602084013e6119d2565b606091505b5050905080611a16576040517f08c379a0000000000000000000000000000000000000000000000000000000008152600401611a0d9061417a565b60405180910390fd5b505b8160020154341115611add575f3373ffffffffffffffffffffffffffffffffffffffff16836002015434611a4c9190614054565b604051611a58906140b4565b5f6040518083038185875af1925050503d805f8114611a92576040519150601f19603f3d011682016040523d82523d5f602084013e611a97565b606091505b5050905080611adb576040517f08c379a0000000000000000000000000000000000000000000000000000000008152600401611ad2906141e2565b60405180910390fd5b505b3373ffffffffffffffffffffffffffffffffffffffff1685827f788aac23bf3a0178a9d13b62024cd754d0570909f1f9f3f441dff4dfe2579f6f87604051611b25919061375d565b60405180910390a4809250505092915050565b5f80600c5f815480929190611b4c906144a5565b9190505590506040518060c001604052803373ffffffffffffffffffffffffffffffffffffffff1681526020018681526020018581526020018481526020015f815260200160011515815250600b5f8381526020019081526020015f205f820151815f015f6101000a81548173ffffffffffffffffffffffffffffffffffffffff021916908373ffffffffffffffffffffffffffffffffffffffff1602179055506020820151816001019081611c029190614689565b5060408201518160020155606082015181600301556080820151816004015560a0820151816005015f6101000a81548160ff0219169083151502179055509050503373ffffffffffffffffffffffffffffffffffffffff16817f3e1e16dc53562886fa9ab2acde567c1067c24a0c4daad0e47ab75c7b194a90ed878787604051611c8e93929190614758565b60405180910390a3809150509392505050565b600c5481565b611cb9611cb261211f565b8383612687565b5050565b600f602052805f5260405f205f91509050805f015490806001015f9054906101000a900473ffffffffffffffffffffffffffffffffffffffff16908060010160149054906101000a900460ff16905083565b611d1a84848461126f565b611d2e611d2561211f565b85858585612860565b50505050565b6060611d3f82612a0c565b9050919050565b5f60055f8473ffffffffffffffffffffffffffffffffffffffff1673ffffffffffffffffffffffffffffffffffffffff1681526020019081526020015f205f8373ffffffffffffffffffffffffffffffffffffffff1673ffffffffffffffffffffffffffffffffffffffff1681526020019081526020015f205f9054906101000a900460ff16905092915050565b600d602052805f5260405f205f915090505481565b3373ffffffffffffffffffffffffffffffffffffffff16611e098261163b565b73ffffffffffffffffffffffffffffffffffffffff161480611e8957503373ffffffffffffffffffffffffffffffffffffffff16600f5f8381526020019081526020015f206001015f9054906101000a900473ffffffffffffffffffffffffffffffffffffffff1673ffffffffffffffffffffffffffffffffffffffff16145b611ec8576040517f08c379a0000000000000000000000000000000000000000000000000000000008152600401611ebf906147de565b60405180910390fd5b600f5f8281526020019081526020015f205f8082015f9055600182015f6101000a81549073ffffffffffffffffffffffffffffffffffffffff02191690556001820160146101000a81549060ff021916905550503373ffffffffffffffffffffffffffffffffffffffff16817f90a146eedc5570ea9bf29157623b78a453ec2b3113ef4aa35fec74b0574d636c60405160405180910390a350565b611f6b6124c6565b5f73ffffffffffffffffffffffffffffffffffffffff168173ffffffffffffffffffffffffffffffffffffffff1603611fdb575f6040517f1e4fbdf7000000000000000000000000000000000000000000000000000000008152600401611fd2919061381a565b60405180910390fd5b611fe48161254d565b50565b5f7f2a55205a000000000000000000000000000000000000000000000000000000007bffffffffffffffffffffffffffffffffffffffffffffffffffffffff1916827bffffffffffffffffffffffffffffffffffffffffffffffffffffffff19161480612059575061205882612a88565b5b9050919050565b5f8061206b83612ae8565b90505f73ffffffffffffffffffffffffffffffffffffffff168173ffffffffffffffffffffffffffffffffffffffff16036120dd57826040517f7e2732890000000000000000000000000000000000000000000000000000000081526004016120d491906139f0565b60405180910390fd5b80915050919050565b5f60045f8381526020019081526020015f205f9054906101000a900473ffffffffffffffffffffffffffffffffffffffff169050919050565b5f33905090565b6121338383836001612b21565b505050565b5f73ffffffffffffffffffffffffffffffffffffffff168273ffffffffffffffffffffffffffffffffffffffff16036121a8575f6040517f64a0ae9200000000000000000000000000000000000000000000000000000000815260040161219f919061381a565b60405180910390fd5b5f6121b483835f6122a0565b90505f73ffffffffffffffffffffffffffffffffffffffff168173ffffffffffffffffffffffffffffffffffffffff160361222657816040517f7e27328900000000000000000000000000000000000000000000000000000000815260040161221d91906139f0565b60405180910390fd5b8373ffffffffffffffffffffffffffffffffffffffff168173ffffffffffffffffffffffffffffffffffffffff161461229a578382826040517f64283d7b00000000000000000000000000000000000000000000000000000000815260040161229193929190614338565b60405180910390fd5b50505050565b5f806122ad858585612ce0565b90505f73ffffffffffffffffffffffffffffffffffffffff168173ffffffffffffffffffffffffffffffffffffffff161415801561231757505f73ffffffffffffffffffffffffffffffffffffffff168573ffffffffffffffffffffffffffffffffffffffff1614155b1561239957600f5f8581526020019081526020015f2060010160149054906101000a900460ff161561239857600f5f8581526020019081526020015f205f8082015f9055600182015f6101000a81549073ffffffffffffffffffffffffffffffffffffffff02191690556001820160146101000a81549060ff021916905550505b5b809150509392505050565b5f805f60095f8681526020019081526020015f2090505f815f015f9054906101000a900473ffffffffffffffffffffffffffffffffffffffff1690505f825f0160149054906101000a90046bffffffffffffffffffffffff1690505f73ffffffffffffffffffffffffffffffffffffffff168273ffffffffffffffffffffffffffffffffffffffff16036124785760085f015f9054906101000a900473ffffffffffffffffffffffffffffffffffffffff16915060085f0160149054906101000a90046bffffffffffffffffffffffff1690505b5f612481612eeb565b6bffffffffffffffffffffffff16826bffffffffffffffffffffffff16886124a99190613fb6565b6124b39190614024565b9050828195509550505050509250929050565b6124ce61211f565b73ffffffffffffffffffffffffffffffffffffffff166124ec611732565b73ffffffffffffffffffffffffffffffffffffffff161461254b5761250f61211f565b6040517f118cdaa7000000000000000000000000000000000000000000000000000000008152600401612542919061381a565b60405180910390fd5b565b5f60075f9054906101000a900473ffffffffffffffffffffffffffffffffffffffff1690508160075f6101000a81548173ffffffffffffffffffffffffffffffffffffffff021916908373ffffffffffffffffffffffffffffffffffffffff1602179055508173ffffffffffffffffffffffffffffffffffffffff168173ffffffffffffffffffffffffffffffffffffffff167f8be0079c531659141344cd1fd0a4f28419497f9722a3daafe3b4186f6b6457e060405160405180910390a35050565b612629828260405180602001604052805f815250612ef4565b5050565b8060065f8481526020019081526020015f20908161264b9190614689565b507ff8e1a15aba9398e019f0b49df1a4fde98ee17ae345cb5f6b5e2c27f5033e8ce78260405161267b91906139f0565b60405180910390a15050565b5f73ffffffffffffffffffffffffffffffffffffffff168373ffffffffffffffffffffffffffffffffffffffff16036126f7575f6040517fa9fbf51f0000000000000000000000000000000000000000000000000000000081526004016126ee919061381a565b60405180910390fd5b5f73ffffffffffffffffffffffffffffffffffffffff168273ffffffffffffffffffffffffffffffffffffffff160361276757816040517f5b08ba1800000000000000000000000000000000000000000000000000000000815260040161275e919061381a565b60405180910390fd5b8060055f8573ffffffffffffffffffffffffffffffffffffffff1673ffffffffffffffffffffffffffffffffffffffff1681526020019081526020015f205f8473ffffffffffffffffffffffffffffffffffffffff1673ffffffffffffffffffffffffffffffffffffffff1681526020019081526020015f205f6101000a81548160ff0219169083151502179055508173ffffffffffffffffffffffffffffffffffffffff168373ffffffffffffffffffffffffffffffffffffffff167f17307eab39ab6107e8899845ad3d59bd9653f200f220920489ca2b5937696c318360405161285391906136ba565b60405180910390a3505050565b5f8373ffffffffffffffffffffffffffffffffffffffff163b1115612a05578273ffffffffffffffffffffffffffffffffffffffff1663150b7a02868685856040518563ffffffff1660e01b81526004016128be949392919061484e565b6020604051808303815f875af19250505080156128f957506040513d601f19601f820116820180604052508101906128f691906148ac565b60015b61297a573d805f8114612927576040519150601f19603f3d011682016040523d82523d5f602084013e61292c565b606091505b505f81510361297257836040517f64a0ae92000000000000000000000000000000000000000000000000000000008152600401612969919061381a565b60405180910390fd5b805160208201fd5b63150b7a0260e01b7bffffffffffffffffffffffffffffffffffffffffffffffffffffffff1916817bffffffffffffffffffffffffffffffffffffffffffffffffffffffff191614612a0357836040517f64a0ae920000000000000000000000000000000000000000000000000000000081526004016129fa919061381a565b60405180910390fd5b505b5050505050565b6060612a1782612060565b505f612a21612f17565b90505f612a2d84612f2d565b90505f825103612a41578092505050612a83565b5f81511115612a75578181604051602001612a5d929190614911565b60405160208183030381529060405292505050612a83565b612a7e84612fce565b925050505b919050565b5f634906490660e01b7bffffffffffffffffffffffffffffffffffffffffffffffffffffffff1916827bffffffffffffffffffffffffffffffffffffffffffffffffffffffff19161480612ae15750612ae082613034565b5b9050919050565b5f60025f8381526020019081526020015f205f9054906101000a900473ffffffffffffffffffffffffffffffffffffffff169050919050565b8080612b5957505f73ffffffffffffffffffffffffffffffffffffffff168273ffffffffffffffffffffffffffffffffffffffff1614155b15612c8b575f612b6884612060565b90505f73ffffffffffffffffffffffffffffffffffffffff168373ffffffffffffffffffffffffffffffffffffffff1614158015612bd257508273ffffffffffffffffffffffffffffffffffffffff168173ffffffffffffffffffffffffffffffffffffffff1614155b8015612be55750612be38184611d46565b155b15612c2757826040517fa9fbf51f000000000000000000000000000000000000000000000000000000008152600401612c1e919061381a565b60405180910390fd5b8115612c8957838573ffffffffffffffffffffffffffffffffffffffff168273ffffffffffffffffffffffffffffffffffffffff167f8c5be1e5ebec7d5bd14f71427d1e84f3dd0314c0f7b2291e5b200ac8c7c3b92560405160405180910390a45b505b8360045f8581526020019081526020015f205f6101000a81548173ffffffffffffffffffffffffffffffffffffffff021916908373ffffffffffffffffffffffffffffffffffffffff16021790555050505050565b5f80612ceb84612ae8565b90505f73ffffffffffffffffffffffffffffffffffffffff168373ffffffffffffffffffffffffffffffffffffffff1614612d2c57612d2b818486613115565b5b5f73ffffffffffffffffffffffffffffffffffffffff168173ffffffffffffffffffffffffffffffffffffffff1614612db757612d6b5f855f80612b21565b600160035f8373ffffffffffffffffffffffffffffffffffffffff1673ffffffffffffffffffffffffffffffffffffffff1681526020019081526020015f205f82825403925050819055505b5f73ffffffffffffffffffffffffffffffffffffffff168573ffffffffffffffffffffffffffffffffffffffff1614612e3657600160035f8773ffffffffffffffffffffffffffffffffffffffff1673ffffffffffffffffffffffffffffffffffffffff1681526020019081526020015f205f82825401925050819055505b8460025f8681526020019081526020015f205f6101000a81548173ffffffffffffffffffffffffffffffffffffffff021916908373ffffffffffffffffffffffffffffffffffffffff160217905550838573ffffffffffffffffffffffffffffffffffffffff168273ffffffffffffffffffffffffffffffffffffffff167fddf252ad1be2c89b69c2b068fc378daa952ba7f163c4a11628f55a4df523b3ef60405160405180910390a4809150509392505050565b5f612710905090565b612efe83836131d8565b612f12612f0961211f565b5f858585612860565b505050565b606060405180602001604052805f815250905090565b606060065f8381526020019081526020015f208054612f4b90613e21565b80601f0160208091040260200160405190810160405280929190818152602001828054612f7790613e21565b8015612fc25780601f10612f9957610100808354040283529160200191612fc2565b820191905f5260205f20905b815481529060010190602001808311612fa557829003601f168201915b50505050509050919050565b6060612fd982612060565b505f612fe3612f17565b90505f8151116130015760405180602001604052805f81525061302c565b8061300b846132cb565b60405160200161301c929190614911565b6040516020818303038152906040525b915050919050565b5f7f80ac58cd000000000000000000000000000000000000000000000000000000007bffffffffffffffffffffffffffffffffffffffffffffffffffffffff1916827bffffffffffffffffffffffffffffffffffffffffffffffffffffffff191614806130fe57507f5b5e139f000000000000000000000000000000000000000000000000000000007bffffffffffffffffffffffffffffffffffffffffffffffffffffffff1916827bffffffffffffffffffffffffffffffffffffffffffffffffffffffff1916145b8061310e575061310d82613395565b5b9050919050565b6131208383836133fe565b6131d3575f73ffffffffffffffffffffffffffffffffffffffff168373ffffffffffffffffffffffffffffffffffffffff160361319457806040517f7e27328900000000000000000000000000000000000000000000000000000000815260040161318b91906139f0565b60405180910390fd5b81816040517f177e802f0000000000000000000000000000000000000000000000000000000081526004016131ca92919061399e565b60405180910390fd5b505050565b5f73ffffffffffffffffffffffffffffffffffffffff168273ffffffffffffffffffffffffffffffffffffffff1603613248575f6040517f64a0ae9200000000000000000000000000000000000000000000000000000000815260040161323f919061381a565b60405180910390fd5b5f61325483835f6122a0565b90505f73ffffffffffffffffffffffffffffffffffffffff168173ffffffffffffffffffffffffffffffffffffffff16146132c6575f6040517f73c6ac6e0000000000000000000000000000000000000000000000000000000081526004016132bd919061381a565b60405180910390fd5b505050565b60605f60016132d9846134be565b0190505f8167ffffffffffffffff8111156132f7576132f6613a11565b5b6040519080825280601f01601f1916602001820160405280156133295781602001600182028036833780820191505090505b5090505f82602083010190505b60011561338a578080600190039150507f3031323334353637383961626364656600000000000000000000000000000000600a86061a8153600a858161337f5761337e613ff7565b5b0494505f8503613336575b819350505050919050565b5f7f01ffc9a7000000000000000000000000000000000000000000000000000000007bffffffffffffffffffffffffffffffffffffffffffffffffffffffff1916827bffffffffffffffffffffffffffffffffffffffffffffffffffffffff1916149050919050565b5f8073ffffffffffffffffffffffffffffffffffffffff168373ffffffffffffffffffffffffffffffffffffffff16141580156134b557508273ffffffffffffffffffffffffffffffffffffffff168473ffffffffffffffffffffffffffffffffffffffff16148061347657506134758484611d46565b5b806134b457508273ffffffffffffffffffffffffffffffffffffffff1661349c836120e6565b73ffffffffffffffffffffffffffffffffffffffff16145b5b90509392505050565b5f805f90507a184f03e93ff9f4daa797ed6e38ed64bf6a1f010000000000000000831061351a577a184f03e93ff9f4daa797ed6e38ed64bf6a1f01000000000000000083816135105761350f613ff7565b5b0492506040810190505b6d04ee2d6d415b85acef81000000008310613557576d04ee2d6d415b85acef8100000000838161354d5761354c613ff7565b5b0492506020810190505b662386f26fc10000831061358657662386f26fc10000838161357c5761357b613ff7565b5b0492506010810190505b6305f5e10083106135af576305f5e10083816135a5576135a4613ff7565b5b0492506008810190505b61271083106135d45761271083816135ca576135c9613ff7565b5b0492506004810190505b606483106135f757606483816135ed576135ec613ff7565b5b0492506002810190505b600a8310613606576001810190505b80915050919050565b5f604051905090565b5f80fd5b5f80fd5b5f7fffffffff0000000000000000000000000000000000000000000000000000000082169050919050565b61365481613620565b811461365e575f80fd5b50565b5f8135905061366f8161364b565b92915050565b5f6020828403121561368a57613689613618565b5b5f61369784828501613661565b91505092915050565b5f8115159050919050565b6136b4816136a0565b82525050565b5f6020820190506136cd5f8301846136ab565b92915050565b5f81519050919050565b5f82825260208201905092915050565b5f5b8381101561370a5780820151818401526020810190506136ef565b5f8484015250505050565b5f601f19601f8301169050919050565b5f61372f826136d3565b61373981856136dd565b93506137498185602086016136ed565b61375281613715565b840191505092915050565b5f6020820190508181035f8301526137758184613725565b905092915050565b5f819050919050565b61378f8161377d565b8114613799575f80fd5b50565b5f813590506137aa81613786565b92915050565b5f602082840312156137c5576137c4613618565b5b5f6137d28482850161379c565b91505092915050565b5f73ffffffffffffffffffffffffffffffffffffffff82169050919050565b5f613804826137db565b9050919050565b613814816137fa565b82525050565b5f60208201905061382d5f83018461380b565b92915050565b61383c816137fa565b8114613846575f80fd5b50565b5f8135905061385781613833565b92915050565b5f806040838503121561387357613872613618565b5b5f61388085828601613849565b92505060206138918582860161379c565b9150509250929050565b6138a48161377d565b82525050565b5f60c0820190506138bd5f83018961380b565b81810360208301526138cf8188613725565b90506138de604083018761389b565b6138eb606083018661389b565b6138f8608083018561389b565b61390560a08301846136ab565b979650505050505050565b5f806040838503121561392657613925613618565b5b5f6139338582860161379c565b92505060206139448582860161379c565b9150509250929050565b5f805f6060848603121561396557613964613618565b5b5f61397286828701613849565b935050602061398386828701613849565b92505060406139948682870161379c565b9150509250925092565b5f6040820190506139b15f83018561380b565b6139be602083018461389b565b9392505050565b5f602082840312156139da576139d9613618565b5b5f6139e784828501613849565b91505092915050565b5f602082019050613a035f83018461389b565b92915050565b5f80fd5b5f80fd5b7f4e487b71000000000000000000000000000000000000000000000000000000005f52604160045260245ffd5b613a4782613715565b810181811067ffffffffffffffff82111715613a6657613a65613a11565b5b80604052505050565b5f613a7861360f565b9050613a848282613a3e565b919050565b5f67ffffffffffffffff821115613aa357613aa2613a11565b5b613aac82613715565b9050602081019050919050565b828183375f83830152505050565b5f613ad9613ad484613a89565b613a6f565b905082815260208101848484011115613af557613af4613a0d565b5b613b00848285613ab9565b509392505050565b5f82601f830112613b1c57613b1b613a09565b5b8135613b2c848260208601613ac7565b91505092915050565b5f8060408385031215613b4b57613b4a613618565b5b5f613b588582860161379c565b925050602083013567ffffffffffffffff811115613b7957613b7861361c565b5b613b8585828601613b08565b9150509250929050565b5f805f60608486031215613ba657613ba5613618565b5b5f84013567ffffffffffffffff811115613bc357613bc261361c565b5b613bcf86828701613b08565b9350506020613be08682870161379c565b9250506040613bf18682870161379c565b9150509250925092565b613c04816136a0565b8114613c0e575f80fd5b50565b5f81359050613c1f81613bfb565b92915050565b5f8060408385031215613c3b57613c3a613618565b5b5f613c4885828601613849565b9250506020613c5985828601613c11565b9150509250929050565b5f606082019050613c765f83018661389b565b613c83602083018561380b565b613c9060408301846136ab565b949350505050565b5f67ffffffffffffffff821115613cb257613cb1613a11565b5b613cbb82613715565b9050602081019050919050565b5f613cda613cd584613c98565b613a6f565b905082815260208101848484011115613cf657613cf5613a0d565b5b613d01848285613ab9565b509392505050565b5f82601f830112613d1d57613d1c613a09565b5b8135613d2d848260208601613cc8565b91505092915050565b5f805f8060808587031215613d4e57613d4d613618565b5b5f613d5b87828801613849565b9450506020613d6c87828801613849565b9350506040613d7d8782880161379c565b925050606085013567ffffffffffffffff811115613d9e57613d9d61361c565b5b613daa87828801613d09565b91505092959194509250565b5f8060408385031215613dcc57613dcb613618565b5b5f613dd985828601613849565b9250506020613dea85828601613849565b9150509250929050565b7f4e487b71000000000000000000000000000000000000000000000000000000005f52602260045260245ffd5b5f6002820490506001821680613e3857607f821691505b602082108103613e4b57613e4a613df4565b5b50919050565b7f5469636b6574206e6f74206c697374656420666f7220726573616c65000000005f82015250565b5f613e85601c836136dd565b9150613e9082613e51565b602082019050919050565b5f6020820190508181035f830152613eb281613e79565b9050919050565b7f496e73756666696369656e74207061796d656e740000000000000000000000005f82015250565b5f613eed6014836136dd565b9150613ef882613eb9565b602082019050919050565b5f6020820190508181035f830152613f1a81613ee1565b9050919050565b7f4c697374696e6720696e76616c696461746564206279207472616e73666572005f82015250565b5f613f55601f836136dd565b9150613f6082613f21565b602082019050919050565b5f6020820190508181035f830152613f8281613f49565b9050919050565b7f4e487b71000000000000000000000000000000000000000000000000000000005f52601160045260245ffd5b5f613fc08261377d565b9150613fcb8361377d565b9250828202613fd98161377d565b91508282048414831517613ff057613fef613f89565b5b5092915050565b7f4e487b71000000000000000000000000000000000000000000000000000000005f52601260045260245ffd5b5f61402e8261377d565b91506140398361377d565b92508261404957614048613ff7565b5b828204905092915050565b5f61405e8261377d565b91506140698361377d565b925082820390508181111561408157614080613f89565b5b92915050565b5f81905092915050565b50565b5f61409f5f83614087565b91506140aa82614091565b5f82019050919050565b5f6140be82614094565b9150819050919050565b7f5472616e7366657220746f2073656c6c6572206661696c6564000000000000005f82015250565b5f6140fc6019836136dd565b9150614107826140c8565b602082019050919050565b5f6020820190508181035f830152614129816140f0565b9050919050565b7f5472616e7366657220746f206f7267616e697a6572206661696c6564000000005f82015250565b5f614164601c836136dd565b915061416f82614130565b602082019050919050565b5f6020820190508181035f83015261419181614158565b9050919050565b7f526566756e64206661696c6564000000000000000000000000000000000000005f82015250565b5f6141cc600d836136dd565b91506141d782614198565b602082019050919050565b5f6020820190508181035f8301526141f9816141c0565b9050919050565b7f4e6f7420746865206f776e6572000000000000000000000000000000000000005f82015250565b5f614234600d836136dd565b915061423f82614200565b602082019050919050565b5f6020820190508181035f83015261426181614228565b9050919050565b7f5469636b657420616c72656164792075736564000000000000000000000000005f82015250565b5f61429c6013836136dd565b91506142a782614268565b602082019050919050565b5f6020820190508181035f8301526142c981614290565b9050919050565b7f50726963652065786365656473203135302520636170000000000000000000005f82015250565b5f6143046016836136dd565b915061430f826142d0565b602082019050919050565b5f6020820190508181035f830152614331816142f8565b9050919050565b5f60608201905061434b5f83018661380b565b614358602083018561389b565b614365604083018461380b565b949350505050565b7f4f6e6c79206f7267616e697a65722063616e207363616e0000000000000000005f82015250565b5f6143a16017836136dd565b91506143ac8261436d565b602082019050919050565b5f6020820190508181035f8301526143ce81614395565b9050919050565b7f4576656e7420646f6573206e6f742065786973740000000000000000000000005f82015250565b5f6144096014836136dd565b9150614414826143d5565b602082019050919050565b5f6020820190508181035f830152614436816143fd565b9050919050565b7f4576656e7420697320736f6c64206f75740000000000000000000000000000005f82015250565b5f6144716011836136dd565b915061447c8261443d565b602082019050919050565b5f6020820190508181035f83015261449e81614465565b9050919050565b5f6144af8261377d565b91507fffffffffffffffffffffffffffffffffffffffffffffffffffffffffffffffff82036144e1576144e0613f89565b5b600182019050919050565b5f819050815f5260205f209050919050565b5f6020601f8301049050919050565b5f82821b905092915050565b5f600883026145487fffffffffffffffffffffffffffffffffffffffffffffffffffffffffffffffff8261450d565b614552868361450d565b95508019841693508086168417925050509392505050565b5f819050919050565b5f61458d6145886145838461377d565b61456a565b61377d565b9050919050565b5f819050919050565b6145a683614573565b6145ba6145b282614594565b848454614519565b825550505050565b5f90565b6145ce6145c2565b6145d981848461459d565b505050565b5b818110156145fc576145f15f826145c6565b6001810190506145df565b5050565b601f82111561464157614612816144ec565b61461b846144fe565b8101602085101561462a578190505b61463e614636856144fe565b8301826145de565b50505b505050565b5f82821c905092915050565b5f6146615f1984600802614646565b1980831691505092915050565b5f6146798383614652565b9150826002028217905092915050565b614692826136d3565b67ffffffffffffffff8111156146ab576146aa613a11565b5b6146b58254613e21565b6146c0828285614600565b5f60209050601f8311600181146146f1575f84156146df578287015190505b6146e9858261466e565b865550614750565b601f1984166146ff866144ec565b5f5b8281101561472657848901518255600182019150602085019450602081019050614701565b86831015614743578489015161473f601f891682614652565b8355505b6001600288020188555050505b505050505050565b5f6060820190508181035f8301526147708186613725565b905061477f602083018561389b565b61478c604083018461389b565b949350505050565b7f4e6f7420617574686f72697a65640000000000000000000000000000000000005f82015250565b5f6147c8600e836136dd565b91506147d382614794565b602082019050919050565b5f6020820190508181035f8301526147f5816147bc565b9050919050565b5f81519050919050565b5f82825260208201905092915050565b5f614820826147fc565b61482a8185614806565b935061483a8185602086016136ed565b61484381613715565b840191505092915050565b5f6080820190506148615f83018761380b565b61486e602083018661380b565b61487b604083018561389b565b818103606083015261488d8184614816565b905095945050505050565b5f815190506148a68161364b565b92915050565b5f602082840312156148c1576148c0613618565b5b5f6148ce84828501614898565b91505092915050565b5f81905092915050565b5f6148eb826136d3565b6148f581856148d7565b93506149058185602086016136ed565b80840191505092915050565b5f61491c82856148e1565b915061492882846148e1565b9150819050939250505056fea2646970667358221220ff71a4064511df94b8e5e21711a43b486776c401042594d29acffb257ea4e33c64736f6c63430008180033",
  "linkReferences": {},
  "deployedLinkReferences": {}
}